:020000040800F2
:10000000381600209D010008872500087D21000882
:10001000852500089F0700081F2B0008000000002E
:1000200000000000000000000000000005010008C2
:10003000AD0700080000000049010008BD260008C7
:10004000B7010008B7010008B7010008B7010008B0
:10005000B7010008B7010008B7010008B7010008A0
:10006000B7010008B7010008B7010008A1070008A0
:10007000B7010008B7010008B7010008B701000880
:10008000B7010008B7010008B7010008B701000870
:10009000B7010008B7010008B7010008B701000860
:1000A000B7010008B7010008B7010008B701000850
:1000B00059270008B7010008B7010008B701000878
:1000C000B7010008B7010008B7010008B701000830
:1000D000B7010008B7010008B7010008B701000820
:1000E00007090008B7010008B7010008DFF810D0C1
:1000F00000F018FB00480047ED350008AFF3008022
:1001000038160020224B19680868B0E8F00F80F319
:100110000988BFF36F8F4FF0000080F311884EF015
:100120000D0E70470000000006480068006880F36C
:10013000088862B661B6BFF34F8FBFF36F8F00DFE1
:1001400000BF00BF08ED00E0EFF30980BFF36F8F41
:100150000F4B1A6820E9F00F106008B54FF05000FF
:1001600080F31188BFF34F8FBFF36F8F03F0D4FD7F
:100170004FF0000080F31188BDE808401968086856
:10018000B0E8F00F80F30988BFF36F8F704700BFAE
:1001900018000020EFF305807047000006488047F4
:1001A00006480047FEE7FEE7FEE7FEE7FEE7FEE75C
:1001B000FEE7FEE7FEE7FEE755270008ED00000832
:1001C000202A04DB203A21FA02F00021704721FAAC
:1001D00002F3D040C2F12002914008431946704713
:1001E00040EA01039B0703D009E008C9121F08C0B9
:1001F000042AFAD203E011F8013B00F8013B521E39
:10020000F9D27047D2B201E000F8012B491EFBD2AF
:1002100070470022F6E710B513460A460446194611
:10022000FFF7F0FF204610BD2DE9FE4F804681EA22
:100230000300C00F0C46009021F0004123F0004560
:10024000B8EB0200A94105D24046214690461C4623
:100250000B46024623F00040104347D0270DC7F35A
:100260000A00C3F30A510290401A019040286BDA49
:10027000C3F3130040F4801B0098924620B1002382
:10028000D2EB030A63EB0B0B01985946C0F1400215
:10029000504600F0B0F906460D4650465946019AC0
:1002A00000F0B8F910EB08006141002487EA115210
:1002B00084EAE7731A4340D0009A62B3019A012A94
:1002C0004FEA075215DC001B61EB02014FF00042C0
:1002D00002EA0752CDE90042001C41F58011324686
:1002E0002B4600F0B8F903B0BDE8F08F4046214638
:1002F000F9E7001B61EB0201001C41F580130018B7
:100300005B412018A2F5001747EB030140EAD570C6
:10031000B6196D4111E06D084FEA360645EAC07521
:100320004FEA0752001B61EB0201001C41F58011EE
:1003300049084FEA30000019514132462B4603B0BC
:10034000BDE8F04F00F078B900980122400000238A
:10035000D0EB020263EBE073009821464FEAE074B1
:10036000B8EB000061EB0401E9E783F000435BE7D1
:1003700081F0004158E72DE9FE4F81EA030404F0C3
:10038000004421F0004100944FF0000B23F00043A3
:1003900050EA01045ED052EA03045BD0C3F30A546E
:1003A000C1F30A552C44A4F2F3340194A0FB025487
:1003B000C1F3130141F48011C3F3130343F4801319
:1003C00001FB024400FB034E840A970A44EA81546D
:1003D00047EA8357A4FB076802958D0A05FB07854A
:1003E0004FEA932C04FB0C542705029D4FEA065854
:1003F00047EA1637B5EB08056EEB070C870E920E31
:1004000047EA811742EA8312A7FB0201B6EB0B0110
:1004100064EB00042B0D43EA0C335E1844EB1C50D4
:10042000DA465146E7FB0201C5F313044FEA0B33EA
:1004300043EA14534FEA0432019C43EA0603A4F151
:100440000C040294009CCDE900B400F004F903B060
:10045000BDE8F08F00200146F9E72DE9F04D81EA73
:10046000030404F0004B21F0004514464FF0000A4D
:1004700023F0004150EA050220D054EA01021DD0C9
:10048000C5F30A570246C5F31303C1F31300C1F3C2
:100490000A5640F4801543F48013A7EB0608101B9E
:1004A000D64608F2FD3873EB050002D308F10108C7
:1004B00001E092185B41B8F1000F03DA0020014619
:1004C000BDE8F08D00204FF48011064684460EE012
:1004D000171B73EB050705D3121B63EB05030643DC
:1004E0004CEA010C49084FEA300092185B4150EA8F
:1004F0000107EDD152EA030012D082EA040083EA38
:100500000501084305D0101BAB4106D20122002390
:1005100006E000224FF0004302E06FF001025310AA
:100520001AEB06004CEB085110EB0A0041EB0B01F3
:10053000BDE8F04D00F080B830B5041E71F1000444
:1005400004DB4FF00044404264EB0101141E73F1E0
:10055000000405DB1C464FF00043524263EB0403EA
:10056000994208BF904230BD30B50B46014600208D
:100570002022012409E021FA02F59D4205D303FA65
:1005800002F5491B04FA02F52844151EA2F10102E6
:10059000F1DC30BD2DE9F05F0546002092469B4618
:1005A00088460646814640241BE028464146474689
:1005B0002246FFF705FE53465A46C01A914110D312
:1005C00011461846224600F016F82D1A67EB01086E
:1005D0004F4622460120002100F00DF817EB0009DC
:1005E0004E41201EA4F10104DFDC484631462A4674
:1005F0004346BDE8F09F202A04DB203A00FA02F1CE
:10060000002070479140C2F1200320FA03F3194300
:1006100090407047202A06DBCB17203A41FA02F0BF
:1006200043EAE07306E041FA02F3D040C2F120024F
:10063000914008431946704710B5141E73F1000429
:1006400008DA401C41F1000192185B411A4301D1C4
:1006500020F0010010BD2DE9F04D92469B4611B1EE
:10066000B1FA81F202E0B0FA80F220329046FFF750
:10067000C2FF04460F4640EA0A0041EA0B01534616
:100680005A46084313D0114653EA010019D0C8F165
:1006900040025046FFF794FD05460E465046594627
:1006A0004246FFF7A8FF084305D0012004E020469A
:1006B0003946BDE8F08D0020054346EAE0762C433C
:1006C00037430A986305E40AA0EB08000022FD0AFC
:1006D00044EA47540A3002D500200146E9E7010503
:1006E00010196941DDE9084500196941BDE8F04D7F
:1006F000A2E7C1F30A52C1F3130140F2FF3341F400
:1007000080119A4202DA00200146704740F23343DA
:100710009A42A2F2334202DC5242FFF751BDFFF788
:100720006ABF0000064C074D06E0E06840F0010398
:1007300094E8070098471034AC42F6D3FFF7DAFC90
:10074000D4470008F447000870B504460068816883
:10075000C943C90717D1816821F00101816000F008
:1007600031FD05460AE000BF00F02CFD401B0228C9
:1007700004D920688068C043C00706D0206880681C
:10078000C043C007F0D0002070BDA06A40F0100048
:10079000A062E06A40F00100E062012070BDFEE767
:1007A000014800F02BBB00000803002070472DE932
:1007B000F0411E4614460F4605461AE0802A05D22F
:1007C00033463946284600F019F80FE06078802853
:1007D0000CD3204603F06CF90246334639462846CE
:1007E00002F0B2FE1035EDB2A41C02E00835EDB205
:1007F000641C2278002AE1D1BDE8F0812DE9F041A6
:1008000000250F468046802827D2402F25D8203A41
:100810001349D0B201EB00140BB1FF2600E0002613
:10082000F808414601F028FF14F8010B704002F06F
:1008300099F96D1CEDB2082DF6D3012000EBD7001D
:10084000414601F019FF002514F8010B704002F039
:1008500089F96D1CEDB2082DF6D3BDE8F0810000DA
:10086000AE4100082DE9F05F01260B9F9B4615461F
:10087000884681460A2A02D90A25012001E0012082
:1008800004E006EB86014E00401CC0B2A842F8D33B
:100890004FB1EA1B09EBC20008F0FF01C0B2002310
:1008A0002E22FFF7ABFF00244FF00A0A27E0BBFB24
:1008B000F6F1E81BA0425046B1FBF0F20AFB12121F
:1008C0000A9802F1300209DD844201D1012300E0DF
:1008D000002308F0FF0109EBC40009E0844201D1C4
:1008E000012300E0002309EBC40008F0FF010830F9
:1008F000C0B2FFF783FFB6FBFAF6641CE4B2AC4269
:10090000D5D3BDE8F09F4FF4004000F059BB72B65C
:10091000FEE700000148008970470000B404002091
:1009200010B586B00021154801F010FB14480024D2
:100930000394816941F0040181618069694600F096
:10094000040004904FF4004000900E4801900120F4
:1009500002900D4800F040FB00220221282000F008
:10096000CFFC282000F0BEFC084855218172C472DB
:1009700006B0BDE8104000F03DB800009403002030
:10098000001002400000111000080140B4040020D3
:10099000642800D96420064988724FF47A7148436C
:1009A0006421B0FBF1F00349096848637047000017
:1009B000B40400209403002010B50C4CE07A002809
:1009C00012D1002208210A4800F0F6FB642002F050
:1009D00093FDA07AFFF7DCFF0120E0720020206089
:1009E000606000F0EFFB206110BD0000B404002047
:1009F000000C014010B501220821064800F0DCFB84
:100A000005490020096848630449C87208810860E4
:100A100010BD0000000C014094030020B40400202D
:100A200070B500F0CFFB104C05462069291AB1F5CE
:100A30007A7F17D3D4E90002801A4EF66022504321
:100A40004900B0FBF1F080B200F048F82081E17A73
:100A500019B1642801D2012000E000202073206831
:100A60002561606070BD0000B404002010B528212D
:100A70001548FFF7CEFB1449082081F820001248E2
:100A800016212830FFF7C5FB0F490720283188744D
:100A90000D480E49403001600D4941604FF07E51D4
:100AA00081600C49016114300B4901600021017221
:100AB0001C210C30FFF7ADFB03480A2160300176A2
:100AC0000221C17610BD0000C80400200AD7233CD3
:100AD00000007041008036449A99193EF0B51D4CD3
:100AE00085B0E17C24F81100E07CA17C401CB0FBC7
:100AF000F1F201FB1200E074207D884201D2401C1B
:100B000020750006C20D13496846FFF769FB237D77
:100B1000002269465D1E15E000209C1A641E0DE04F
:100B200001EB400C31F81060BCF80270BE4203D9F2
:100B300021F81070ACF80260401CC0B28442EFDCB7
:100B4000521CD2B29542E7DC23F00100085A05B0EE
:100B5000F0BD0000F0040020F8B50024009490F8E7
:100B600024202546012A12D0012280F824204A6838
:100B70001F23072A0DD20668776B521E02EB8202F2
:100B800093409F430B6893401F43776319E0022013
:100B9000F8BD06680D2A0AD2376BD21F02EB82021B
:100BA00093409F430B6893401F43376309E0F76A04
:100BB0000D3A02EB820293409F430B6893401F4320
:100BC000F7620A68072306680A2A0AD3F7680A3A0E
:100BD00002EB420293409F438B6893401F43F760B0
:100BE00008E0376902EB420293409F438B689340D1
:100BF0001F4337610A68102A01D0112A20D1124BF5
:100C000002689A4217D193681B0219D4936843F47F
:100C1000000393600968102912D10C490C4A096835
:100C2000B1FBF2F101EB8101490000E0491E0091A6
:100C30000029FBD104E0816A41F020018162012496
:100C400080F824502046F8BD002401401400002004
:100C500040420F002DE9F0414FF0000704003D46EF
:100C60007ED0A06A002628B9E66284F82460204677
:100C700000F07EF82046FFF767FDA16AC90600D4A0
:100C800020B1A06A40F01000A06269E0A16A21F4DE
:100C9000885141F00201A1626268E169237B0A4345
:100CA00047EA43010A43A1684FF48077B94209D06B
:100CB000012907D05FF0000194F814C0BCF1010FC6
:100CC00002D00AE03946F7E7F3B1A36A43F0200304
:100CD000A362E36A43F00103E3622368D3F804C02C
:100CE0002CF4694C4CEA010CC3F804C021688B68F1
:100CF000DFF870C003EA0C0313438B60A168B942AC
:100D00000BD0012909D00CE0DFF85CC0A3690CEB23
:100D100043330B4343F40061DFE7218A0D05A5F55A
:100D200080152168CB6A23F470032B43CB622168C2
:100D300089680E4B1940914208D1E662A16A21F000
:100D4000020141F00101A162BDE8F081A06A20F03A
:100D5000020040F01000A062E06A40F00100E06292
:100D60000120F1E7FDF7E1FF00E0FFFFFE0E1FFFAE
:100D700070B586B00025064600950195029503954D
:100D80000068194988422DD11849886940F40070DB
:100D90008861886900F400700490886940F004005C
:100DA00088618869694600F0040004900120009081
:100DB000032001900E4800F00FF90F4C0D48C4E9D4
:100DC00000058015A560C4E9035080006061202003
:100DD000C4E90605204600F0BBF808B1FFF797FD0F
:100DE0003462666206B070BD00240140001002400B
:100DF0000008014008000240080300202DE9F05FD0
:100E0000C16B0C6801680B68D0F840C0042202FA7C
:100E10000CF2494DDFF824A1494E4A4FDFF828B1C2
:100E2000DFF828E122422CD05A072AD50A68920618
:100E300003D40A6822F004020A600168A94201D1C1
:100E4000042219E0514501D1402215E0B14202D1FE
:100E50004FF4806210E0B94202D14FF480420BE0BF
:100E6000594502D14FF4802206E0714502D14FF47A
:100E7000800201E04FF080622F4908394A60C16A60
:100E80003BE04FF0020808FA0CF818EA040F4FF0A4
:100E900000094FF0010235D05FEA837832D50B6844
:100EA0009B0605D40B6823F00A030B6080F8212011
:100EB0000168A94201D1022219E0514501D1202245
:100EC00015E0B14202D14FF4007210E0B94202D1F4
:100ED0004FF400520BE0594502D14FF4003206E0C6
:100EE000714502D14FF4001201E04FF00072124937
:100EF00008394A6080F82090816A00291AD0BDE83C
:100F0000F05F0847082505FA0CF5254212D01B07AB
:100F100010D50B6823F00E030B6090F84010C36BE4
:100F200002FA01F15960826380F8212080F8209054
:100F3000016BE2E7BDE8F09F080002401C000240A0
:100F40003000024044000240580002406C00024061
:100F500030B528B308C8134914221944B1FBF2F183
:100F60008900C16310498163022141771A6843F601
:100F7000F0718A43D0E900142143D0E902452C43A3
:100F80002143046921434469214384692143114376
:100F9000196000214163012242770177084630BD84
:100FA000012030BDF8FFFDBF00000240B0F5004F4A
:100FB00003D102480168491C01607047B404002055
:100FC000044910B50A68024202D00860FFF7EEFF3C
:100FD00010BD0000140401402DE9F84FDFF8B8916E
:100FE0000024A9F1040B23460F2709F1040AABF1F1
:100FF000040EC9E00125A5402A40AA427DD1674ED2
:10100000D1F804C0ACEB0608B44532D014DCBCF116
:10101000030F3AD009DCBCF1000F2AD0BCF1010F5C
:101020001CD0BCF1020F31D11DE0BCF1110F17D063
:10103000BCF1120F2AD119E0B8F5881F19D006DCCF
:10104000B8F5803F15D0B8F5801F1FD111E0B8F575
:10105000001F0ED0B8F5041F18D10AE0CB6815E0C8
:10106000CB681B1D12E0CB6808330FE0CB680C3354
:101070000CE08B682BB1012B4FF0080303D04561C6
:1010800004E0042302E0056100E00023FF2A01D808
:10109000064601E000F104064FEA840501D9A5F1F6
:1010A0002005D6F8008007FA05FC28EA0C0803FAA8
:1010B00005F548EA0508C6F800804D68ED0062D5E0
:1010C000374DAE6946F00106AE61AD6924F0030606
:1010D00005F001050095334D06EB050CDCF80850D2
:1010E000A607360F07FA06F825EA0805DFF8B880E4
:1010F000404503D14FF0000817E044E0DFF8AC8032
:10110000404502D14FF001080FE0DFF8A4804045D0
:1011100002D14FF0020808E0DFF89880404502D184
:101120004FF0030801E04FF0040808FA06F848EA17
:101130000508CCF808804D68D9F80060ED024D46EE
:1011400001D5164300E096432E604D68DAF8006042
:10115000AD02554601D5164300E096432E604D681A
:10116000DBF80060AD035D4601D5164300E0964311
:101170002E604D68DEF80060ED03754601D516431C
:1011800000E096432E60641C0D682A46E5407FF41B
:1011900031AFBDE8F88F00000804014000001110D5
:1011A000001002400000014000080140000C014016
:1011B00000100140001401400AB1016170470904A8
:1011C000FBE700000148806870470000080000202D
:1011D000024881680278114481607047080000204D
:1011E000074810B5016841F010010160032000F0CC
:1011F000A7F80F2000F006F800F050F8002010BD0E
:101200000020024030B50546204887B0C16941F052
:101210000101C161C06906A900F00100009001A8A8
:1012200000F0ACF90498B8B100F0C8F940001849D2
:101230004FF08042B0FBF1F11648491E0260416058
:1012400040F2E7320021C0E903218160816100F0B2
:10125000F7FB040003D015E000F0B0F9E7E70D4814
:1012600000F030FC04000DD11C2000F03BF8102DE4
:1012700007D2002229461C2000F042F806480560EB
:1012800000E0012407B0204630BD000000100240FD
:1012900040420F006C0400200C0000200F4808B5ED
:1012A000816941F001018161816901F001010091D1
:1012B000C16941F08051C161C069002200F08050D5
:1012C00000900F21901E00F01BF80548416821F0A6
:1012D000E06141F00071416008BD00000010024073
:1012E00000000140002809DB00F01F0201219140AD
:1012F0004009800000F1E020C0F8001170470000B4
:10130000F0B40E4B1B680C46C3F30223C3F1070570
:10131000042D00D90425191D072901D2002300E05E
:10132000DB1E012606FA05F1491E214099409E4028
:10133000761E16403143F0BC01F046BC0CED00E0D7
:10134000064900F0070208684FF6FF03184040EA1C
:101350000220034A10430860704700000CED00E0D3
:101360000000FA052DE9F84305460078354CC00722
:1013700054D0E0690026C00008D4E06940F08050F5
:10138000E061E069012600F0805000902E4801687D
:10139000C90512D40168804641F480710160FFF7ED
:1013A00011FF074605E000BFFFF70CFFC01B6428D4
:1013B00023D8D8F80000C005F6D5206A10F4407094
:1013C00021D0A98801F4407181421CD0206A1F49B4
:1013D000012220F440700A6000220A602062C007E7
:1013E00011D0FFF7EFFE074641F2883808E000BF52
:1013F000FFF7E8FEC11B414502D90320BDE8F88391
:10140000206A8007F4D5206A696820F44070084398
:1014100020621EB1E06920F08050E06128788007EA
:1014200005D56068A96820F44040084360602878CA
:10143000C00605D56068E96820F480000843606054
:101440000020DBE7001002400070004040044242F0
:101450002DE9F0470F46050061D0434E306800F09B
:101460000700B84209D2306820F0070038433060E6
:10147000306800F00700B84251D128683B4C810722
:1014800012D5400703D5606840F4E06060602878BA
:10149000000703D5606840F4605060606068A96828
:1014A00020F0F000084360602878C00728D0686802
:1014B000012810D02168022810D0890700292EDACF
:1014C000616821F0030101436160FFF77BFE804604
:1014D00041F288390DE021688903EFE78901EDE7E2
:1014E000FFF770FEA0EB0801494502D90320BDE8D3
:1014F000F0876068696800F00C00B0EB810FEFD1F5
:10150000306800F00700B8420BD9306820F00700BF
:1015100038433060306800F00700B84201D0012045
:10152000E5E72878400705D56068E96820F4E060C1
:10153000084360602878000706D56068296920F4B0
:10154000605040EAC100606000F058F86168084AE5
:10155000C1F30311515CC8400649086006480068A1
:10156000FFF750FE0020C2E70020024000100240BA
:10157000B0470008140000200C0000200F22026079
:101580000C4A536803F003034360536803F0F0030D
:101590008360536803F4E063C36052684FF4E06310
:1015A00003EAD20202610448006800F00700086004
:1015B0007047000000100240002002400448054926
:1015C00000684968044AC1F30221515CC840704771
:1015D0001400002000100240C047000804480549DC
:1015E00000684968044AC1F3C221515CC840704791
:1015F0001400002000100240C04700080E4A516845
:101600000E4801F00C03042B11D0082B0FD10C480D
:10161000C1F38343C903C05C0AD55168084AC1F3CA
:101620004041921E515C054A5043B0FBF1F07047B7
:1016300004494843704700000010024000127A003D
:10164000A047000800093D002DE9F84F040070D0C4
:101650002078C04DC00749D06868C0F381000128D8
:1016600007D06868C0F38100022809D16868C00308
:1016700006D52868800339D560680028E7D035E0B2
:101680006068B0F5803F0BD010B1B0F5A02F11D03D
:10169000286820F480302860286820F4802002E048
:1016A000286840F480302860606890B1FFF78AFDB8
:1016B00006460AE0286840F480202860F0E700BF72
:1016C000FFF780FD801B642873D828688003F7D556
:1016D0000CE0FFF777FD064605E000BFFFF772FD5F
:1016E000801B6428F0D828688003F7D420789A4EAD
:1016F00080074FF001094FF0000839D5686810F0F5
:101700000C0F07D06868C0F38100022809D168680F
:10171000C00306D42868800714D52069012808D1A1
:1017200010E02069B0B1C6F80090FFF74BFD074606
:1017300005E00AE1FFF746FDC01B0228C4D828686F
:101740008007F7D52868616920F0F80040EAC100F9
:1017500028600DE0C6F80080FFF734FD074604E07E
:10176000FFF730FDC01B022823D828688007F7D474
:10177000207800072CD57948A169D9B1C0F800902C
:10178000FFF720FD074604E0FFF71CFDC01B022801
:101790000FD8686A8007F7D571484FF4FA5100688E
:1017A000B0FBF1F0009000BF0098411E0091FAD20A
:1017B0000EE080E0C0F80080FFF704FD074604E07B
:1017C000FFF700FDC01B022875D8686A8007F7D4B0
:1017D0002078400760D5E8690027C00008D4E86990
:1017E00040F08050E861E869012700F080500090E7
:1017F0005C480168C90513D40168834641F48071CF
:101800000160FFF7DFFC824606E000BFFFF7DAFC6D
:10181000A0EB0A0064284ED8DBF80000C005F5D51F
:10182000E06801280AD008B1052813D0286A20F002
:1018300001002862286A20F0040002E0286A40F0D3
:1018400001002862E06841F2883B98B1FFF7BAFCDA
:1018500082460BE0286A40F004002862EEE700BFF1
:10186000FFF7B0FCA0EB0A0159455AD8286A800757
:10187000F6D50CE0FFF7A6FC824605E0FFF7A2FCD8
:10188000A0EB0A0159454CD8286A8007F6D41FB14D
:10189000E86920F08050E861E06988B36968C1F3C5
:1018A0008101022944D00228C6F8608004D0FFF7E5
:1018B00089FC044638E034E0FFF784FC074604E086
:1018C000FFF780FCC01B02282BD828688001F7D4C2
:1018D000206AB0F5803F05D16868A16820F4003027
:1018E00008436860D4E908010843696821F4741169
:1018F00008436860C6F86090FFF764FC044606E0A1
:1019000025E000BFFFF75EFC001B022809D828680D
:101910008001F7D51BE000BFFFF754FC001B022835
:1019200002D90320BDE8F88F28688001F4D40EE0C6
:101930000128F7D06868226A00F48031914204D10E
:10194000616A00F47010884201D00120EAE70020AB
:10195000E8E70000001002400000424280044242DA
:1019600014000020007000404FF0E02104280869B6
:1019700003D020F004000861704740F00400FAE74B
:101980007047704710B590F83C20012A22D0012200
:1019900080F83C20CA688C6822F4407222434C686C
:1019A00022F4806222430C6822F4006222430C6914
:1019B00022F4805222434C6922F400522243C96926
:1019C000002322F480420A4301684A6480F83C30D4
:1019D000002010BD022010BD70B590F83C20012AF7
:1019E00026D0012480F83C40022280F83D20036884
:1019F0005A689D6822F070060A6832435A600D4B9F
:101A000002689A4208D0B2F1804F05D00A4B9A4240
:101A100002D00A4B9A4204D1496825F08003194349
:101A2000916080F83D40002180F83C10084670BD70
:101A3000022070BD002C014000040040000800405E
:101A400010B5040003D094F83D0010B107E0012068
:101A500010BD002084F83C00204600F01FF8022052
:101A600084F83D00211D206800F07CFE012084F8F0
:101A7000460084F83E0084F83F0084F8400084F873
:101A8000410084F8420084F8430084F8440084F85C
:101A9000450084F83D00002010BD000008B5006836
:101AA0000649884208D10648816941F40061816194
:101AB000806900F40060009008BD0000002C014027
:101AC0000010024090F83D10012901D0012070471C
:101AD000022180F83D100168CA6842F00102CA6024
:101AE00000680B49884208D0B0F1804F05D0094901
:101AF000884202D00849884204D1816801F0070178
:101B0000062903D0016841F00101016000207047FF
:101B1000002C0140000400400008004070B504465D
:101B200090F83C000025012817D0012684F83C607D
:101B3000022084F83D002068826822F0770222F4B7
:101B40007F4282600868502838D00DDC20284FD0B2
:101B500005DC90B3102811D14AE0022070BD302876
:101B600046D040280AD13BE060282FD070280DD005
:101B7000B0F5805F03D0B0F5005F12D0012584F886
:101B80003D60002084F83C00284670BDCB68D1E958
:101B90000121206800F02FFE2068816841F0770164
:101BA00009E0CB68D1E90121206800F024FE20681B
:101BB000816841F480418160E1E719E0CA684968C1
:101BC000206800F0CDFE5021206806E0CA68496810
:101BD000206800F0D6FE6021206800F016FECEE7F7
:101BE000CA684968206800F0BBFE40212068F4E71D
:101BF000226801461046F0E770472DE9F04104469F
:101C00000068C66805694FF00007A90713D5B1073A
:101C100011D5F91E016101202077206880698007B5
:101C2000204602D0FFF7E8FF04E000F0D9F8204694
:101C300000F08AF92777680716D5700714D5216850
:101C40006FF004000861022020772068806910F49A
:101C5000407F204602D0FFF7CFFF04E000F0C0F83D
:101C6000204600F071F92777280715D5300713D5DE
:101C700021686FF008000861042020772068C0699F
:101C80008007204602D0FFF7B7FF04E000F0A8F875
:101C9000204600F059F92777E80616D5F00614D546
:101CA00021686FF010000861082020772068C06963
:101CB00010F4407F204602D0FFF79EFF04E000F0C2
:101CC0008FF8204600F040F92777E80708D0F007A2
:101CD00006D021686FF001000861204600F084F909
:101CE000280608D5300606D521686FF08000086107
:101CF0002046FFF745FE680608D5700606D5216820
:101D00006FF040000861204600F075F9A8060AD57A
:101D1000B00608D521686FF0200008612046BDE8B4
:101D2000F041FFF72EBEBDE8F081000030B585B070
:101D30000021009101910291039103682148224AF8
:101D40004415022183420DD1906940F00400906156
:101D50009069CDE9004100F00400CDE90310694627
:101D60001A482CE01A4D1B48AB4219D1936943F035
:101D7000080393619269039102F008020492102211
:101D8000CDE900216946FFF727F91348416821F49E
:101D9000406141F0E06141F40061416005B030BD57
:101DA0000E4DAB42FAD1936943F0080393619269F7
:101DB000CDE9004102F00802CDE903126946FFF7C0
:101DC0000BF9EBE7002C0140001002400008014035
:101DD00000040040000C01400000014000080040E9
:101DE000704770B5044690F83C0000260D46012867
:101DF0000FD0012084F83C006AB1042A1DD0082AC3
:101E00002FD00C2A3FD00126002084F83C00304619
:101E100070BD022070BD206800F000FD206881695F
:101E200041F0080181612068816921F0040181612C
:101E3000206881692A69114311E0206800F016FDCD
:101E40002068816941F4006181612068816921F421
:101E500080618161206881692A6941EA022181618A
:101E6000D2E7206800F02EFD2068C16941F008012A
:101E7000C1612068C16921F00401C1612068C169A4
:101E80002A69114311E0206800F048FD2068C1690B
:101E900041F40061C1612068C16921F48061C161C0
:101EA0002068C1692A6941EA0221C161ACE710B525
:101EB000040003D094F83D0010B107E0012010BDEC
:101EC000002084F83C00204600F01EF8022084F830
:101ED0003D00211D206800F045FC012084F84600EB
:101EE00084F83E0084F83F0084F8400084F8410004
:101EF00084F8420084F8430084F8440084F84500E4
:101F000084F83D00002010BD08B50C4A01680C485B
:101F1000914207D1C16941F00201C161C06900F07D
:101F2000020009E0074A914207D1C16941F004016A
:101F3000C161C06900F00400009008BD00040040C9
:101F400000100240000800407047000010B5044631
:101F5000022249B104290ED0082913D094F8410077
:101F6000012816D0012010BD94F83E000128F9D1B7
:101F700084F83E200FE094F83F000128F2D184F865
:101F80003F2008E094F840000128EBD184F840207D
:101F900001E084F841200122206800F01FFC0F4975
:101FA0002068884203D1426C42F4004242642068B7
:101FB000884208D0B0F1804F05D00949884202D04C
:101FC0000849884204D1816801F00701062903D03D
:101FD000016841F001010160002010BD002C0140AA
:101FE00000040040000800400068B0F1804F01D1BB
:101FF000FFF7EEB87047704770B5040004D094F84E
:102000004100002510B106E0012070BD84F8405069
:10201000204600F023F8242084F841002068C1689D
:1020200021F40051C160204600F0E4FC2068016901
:1020300021F4904101612068416921F02A01416148
:102040002068C16841F40051C1606564202084F8B3
:10205000410084F842006563002070BD30B585B052
:102060000024009401940294039400681749884264
:102070002AD11748816941F480418161816901F465
:1020800080410491816941F0080181618069114DAD
:1020900000F00800049040200090022001900320EE
:1020A000039069462846FEF797FF8020CDE900049B
:1020B000694628460294FEF78FFF0748416841F0C1
:1020C000E06141F00401416005B030BD00380140DD
:1020D00000100240000C0140000001402DE9F843CF
:1020E000044690F84100984616460D46202802D036
:1020F0000220BDE8F88385B17EB100206064212014
:1021000084F84100FFF75EF8A6848146E684A06863
:102110002027B0F5805F02D003E00120E9E72069C5
:1021200010B12E4600250EE000260CE0802120464E
:1021300000F0BCFCA8B9C6B116F8010B21684860D4
:10214000E08C401EE084E08C4B464FF00002CDF85E
:1021500000800028EAD14FF04001204600F0A6FCA4
:1021600040B184F841700320C3E735F8020BC0F397
:102170000800E3E784F841700020BAE7FEE70000BA
:102180003EB5002410480094019402940D498460E7
:10219000016001250573047505614FF460214460F9
:1021A000C161FEF757FD08B1FEF7B1FBCDE900456F
:1021B000694605480294FEF7CFFC002801D0FEF7DF
:1021C000A6FB3EBD00240140D8020020094808B506
:1021D000416941F0010141614069002200F00100C4
:1021E000009005210B20FFF78BF8BDE808400B207D
:1021F000FFF778B80010024000B587B01C220649EE
:102200006846FDF7EDFF0021684601F038FA034902
:10221000086007B000BD0000A440000800000020D6
:102220002DE9F04786B000245648009401940294AA
:102230000394816941F010018161816901F010010D
:102240000491816941F020018161816901F02001DF
:102250000491816941F004018161816901F0040107
:102260000491816941F0080181618069DFF818817A
:1022700000F00800049000224FF460414046FEF751
:102280009BFFDFF80891012241F23E014846FEF72C
:1022900093FFDFF8FCA0012242F608415046FEF70A
:1022A0008BFF00224FF411415046FEF785FF0022BC
:1022B0004FF40D414846FEF77FFF4FF400501126C2
:1022C0000227CDE90006CDE9024769464046FEF700
:1022D00083FE4FF44040CDE90006012569464046A3
:1022E000CDE90245FEF778FE41F23E504FF003087B
:1022F000CDE90005CDE9024869464846FEF76CFE87
:10230000C0208DE8310069464846FEF765FECDF8ED
:10231000008069465046CDE90145FEF75DFE4FF469
:102320004060CDE90006CDE9024869465046FEF717
:1023300053FE43F20800CDE90005CDE902476946A6
:102340005046FEF749FEE803CDE90006CDE9024715
:1023500069465046FEF740FEF002CDE90005CDE9A2
:10236000024769464846FEF737FE2802CDE90006D7
:1023700069465046CDE90245FEF72EFE06B0BDE89F
:10238000F0870000001002400010014000080140EA
:10239000000C014010B596B000240F9410941194D5
:1023A000129413941C2108A81494FDF732FF2021E5
:1023B0006846FDF72EFF29482749016041F61F4175
:1023C000C0E9011440F2E731C0E903148021C0E9FB
:1023D0000541FFF735FB08B1FEF799FA4FF480503D
:1023E0000F900FA91D48FFF799FB08B1FEF78FFA70
:1023F0001A48FFF75CFD08B1FEF789FA139413A998
:1024000016481494FFF7E8FA08B1FEF780FA702036
:10241000CDE908040A940B940C940D94042208A9A5
:102420000E480E94FFF7DDFC08B1FEF770FA009439
:102430004FF40050CDE9044002940194039469469E
:1024400006480794FFF79EFA08B1FEF760FA0348C2
:10245000FFF76CFC16B010BD002C01404C030020AF
:1024600010B58AB0002407941C2168460894FDF733
:10247000D0FE18481649016041F61F41C0E9011419
:1024800040F2E731C0E9031480218161FFF70FFDBD
:1024900008B1FEF73CFA079407A90E480894FFF725
:1024A0009BFA08B1FEF733FA6020009040F2572003
:1024B000CDE901040022694606480494FFF791FC27
:1024C00008B1FEF724FA0348FFF730FC0AB010BD4C
:1024D000000400409403002010B58AB00024079443
:1024E0001C2168460894FDF794FE174815490160C1
:1024F0004FF4E151C0E9011440F2E731C0E903149F
:1025000080218161FFF7D3FC08B1FEF700FA079440
:1025100007A90D480894FFF75FFA08B1FEF7F7F92D
:102520007020CDE9000402940C2269460648049408
:10253000FFF757FC08B1FEF7EAF90348FFF7F6FB8F
:102540000AB010BD00080040DC0300200C4810B5A4
:102550000A4901604FF4E1314160002181600C22A1
:10256000C160C0E904128161C161FFF745FD002827
:1025700003D0BDE81040FEF7CAB910BD00380140D5
:1025800024040020FEE7FEE710B53A480424046066
:10259000642000F0B1FF3748001F0460642000F0A1
:1025A000ABFFAE2000F0BCFA202000F0B9FA00200A
:1025B00000F0B6FA212000F0B3FA002000F0B0FAE3
:1025C0007F2000F0ADFA0021084600F055F8812088
:1025D00000F0A6FA8F2000F0A3FA822000F0A0FA03
:1025E000BF2000F09DFA402000F09AFAA12000F0F0
:1025F00097FAA42000F094FAA62000F091FAA820FF
:1026000000F08EFA3F2000F08BFAAD2000F088FA3F
:102610008E2000F085FAC82000F082FAD32000F066
:102620007FFA002000F07CFAD52000F079FAF02043
:1026300000F076FAD82000F073FA052000F070FA66
:10264000D92000F06DFAF12000F06AFADA2000F0EB
:1026500067FA122000F064FADB2000F061FA3C20F7
:1026600000F05EFA2E2000F05BFABDE81040AF20CB
:1026700000F056BA1408014010B5B0300C46C0B294
:1026800000F04EFA04F00F0000F04AFA102040EA81
:102690001410BDE8104000F043BA0000FEF7C0F986
:1026A000FEF738F9014603A000F07EFAC82000F0DA
:1026B00023FFF3E772616D3A25640A0010B5FEF757
:1026C00087FD01F019FC012803D0BDE8104001F09E
:1026D000A5BB10BD30B593B028216846FDF799FD24
:1026E00014210AA8FDF795FD00250F950920012169
:1026F00010950090119512954FF480300491069139
:10270000CDE901050224CDE907404FF4E01009901E
:102710006846FEF799FF08B172B6FEE70AA90F20D6
:1027200081E831004FF48060CDE90D0502210AA84F
:10273000FEF78EFE08B172B6FEE74FF4004011902E
:102740000F940FA8FEF70EFE002801D072B6FEE728
:1027500013B030BD704700000148FFF74EBA0000CB
:102760006C040020F0B50268194B1A4C1A4D4FF05A
:102770008047984205D0B84203D0A04201D0A84279
:1027800003D122F070064A683243984205D0B8421D
:1027900003D0A04201D0A84203D122F44074CA68F9
:1027A00022434C6922F08002224302608A68C2629E
:1027B0000A688262984201D109690163012141617D
:1027C0000169C90703D0016921F001010161F0BD70
:1027D000002C0140000400400008004010B501F04A
:1027E0001F030121046A99408C430462016A9A40E4
:1027F0001143016210BD10B5846842EA032224F43B
:102800007F440A432243826010BD826822F0700236
:102810000A4342F0070181607047000030B5036A47
:10282000026A22F0010202624268846924F07305A0
:102830000C682C4323F002058B682B430A4DA842F9
:102840000BD123F00805CB6822F440722B434D696D
:1028500023F0040315438A692A434260846149686E
:102860004163036230BD0000002C014030B5026AB4
:10287000036A23F010030362436884690D6824F43B
:10288000E64444EA05248D6822F0200242EA05125B
:102890000B4DA8420ED1CD6822F0800242EA05120B
:1028A0004D6923F4406343EA85038D6922F04002B9
:1028B00043EA85034360846149688163026230BDF5
:1028C000002C014030B5036A026A22F48072026271
:1028D0004268C46923F4007324F073050C682C4328
:1028E0008D6843EA05230C4DA8420ED1CD6823F430
:1028F000006343EA05234D6922F4405242EA05127F
:102900008D6923F4806342EA05124260C46149681C
:10291000C163036230BD0000002C014030B5046A81
:10292000026A22F4805202624268C3690D6823F48D
:10293000E64343EA05238D6824F4005444EA053451
:10294000064DA84204D14D6922F4804242EA851224
:102950004260C36149680164046230BD002C0140DB
:1029600010B5036A046A24F001040462846924F047
:10297000F00444EA021423F00A020A43846102626A
:1029800010BD10B5036A046A24F01004046284695F
:1029900023F0A00324F4704444EA023243EA011114
:1029A0008261016210BD01680C3151E8002F22F4F0
:1029B000907241E80023002BF5D10168143151E8F1
:1029C000002F22F0010241E80023002BF5D1016B1A
:1029D000012909D101680C3151E8002F22F01002C1
:1029E00041E80023002BF5D1202180F8421000217E
:1029F0000163704770B5044600680169E26821F41C
:102A00004051114301612169A0680843616908438D
:102A10002168CA6841F20C639A430243CA60206885
:102A20004169A26921F44071114341611E49206846
:102A3000884202D1FEF7D2FD01E0FEF7BFFD00EBB8
:102A4000C00101EB0012606864218000B2FBF0F36A
:102A5000B3FBF1F36FF018067343B2FBF0F5B2FB72
:102A6000F0F605EB8305322303EB0515B5FBF1F515
:102A7000B6FBF1F605F0F00505EB0615B2FBF0F636
:102A8000B2FBF0F0B0FBF1F06FF01802504306EB30
:102A9000800003EB0010B0FBF1F0216800F00F00A4
:102AA0002844886070BD0000003801402DE9F843DB
:102AB000984617460D460446089E24E0701C22D016
:102AC000FEF780FBA0EB0800B0421AD8CEB1206818
:102AD000C168490717D5802D15D0402D13D0016846
:102AE000C94309070FD401680025406800902046BB
:102AF000FFF759FF0820606484F840500120BDE8CA
:102B0000F8830320FBE72068006835EA000004D062
:102B10000020B842D2D00020F1E70120F9E7FEE71B
:102B20002DE9F0410746012000F0F4FC0C4E022490
:102B30003460012000F0EEFC08253560012000F033
:102B4000E9FC384600F0D2FF012000F0E3FC361F1C
:102B50003560012000F0DEFC3460BDE8F08100004B
:102B6000140801402DE9F0410746012000F0D2FC95
:102B70000C4802250560012000F0CCFC094C082619
:102B8000241F2660012000F0C5FC384600F0AEFF8F
:102B9000012000F0BFFC2660012000F0BBFC256096
:102BA000BDE8F081140801400FB4054B10B503A92E
:102BB000044A029800F0EAF810BC5DF814FB00002B
:102BC000B5350008800000200907090E002804DB45
:102BD00000F1E02080F80014704700F00F0000F1D1
:102BE000E02080F8141D704702E008C8121F08C1D9
:102BF000002AFAD170477047002001E001C1121F7E
:102C0000002AFBD1704700002DE9FF5F82B0002150
:102C1000DDE90430020DDDF840B0034318D044F67E
:102C20001050A2F2FF3242431514119801281FD010
:102C3000A5EB0B00401C5FEA000A4FF000064E4F68
:102C4000DFF83891B046504615D5CAF1000413E0BC
:102C5000119801244AA3012801D16FEA0B010298BF
:102C6000119AC0E90031C0E9024206B0BDE8F09F08
:102C7000CBF10000DFE704460021404A491842EB4F
:102C80000450CDE9001012E0E00707D032463B4681
:102C900040464946FDF76FFB8046894632463B4633
:102CA00010461946FDF767FB06460F466410002CD8
:102CB000EAD1DDE90401DDE90023BAF1000F06DA0B
:102CC000FDF759FB42464B46FDF755FB05E0FDF786
:102CD000C4FB42464B46FDF7C0FB04460E460022AD
:102CE000284BFDF729FC03D84FF0FF30014607E0E1
:102CF0000022254B20463146FDF796FAFDF7F9FCF8
:102D0000102409E0002C0ADB0A220023FDF742FC14
:102D1000039B30321A55641E50EA0102F2D1641C42
:102D2000039AC4F111031444119A012A03D0012219
:102D300008430DD10AE0084304D000204FF0110BE6
:102D4000119072E7A3EB0B056D1E0DE05B4504DDF2
:102D50004FF0000205F1010504E003DA4FF0000234
:102D6000A5F10105002AECD002981199C0E90231C1
:102D7000C0E9004579E70000000014400000F03F82
:102D8000300000000000F0430000E03F2DE9FF4F5D
:102D900095B09A46884606460025EEE1252877D16B
:102DA00000242746F94A0121039400E0044316F861
:102DB000013F203B01FA03F01042F7D130782A2876
:102DC00011D06FF02F033078A0F13002092A16D805
:102DD000039A44F0020402EB820203EB4202104425
:102DE000761C0390EFE758F8042B0392002A03DACD
:102DF000504244F40054039044F00204761C3078AE
:102E00002E2816D116F8010F44F004042A280DD0FC
:102E10006FF02F023078A0F13003092B09D807EBAF
:102E2000870302EB4303C718761CF3E758F8047BCB
:102E3000761C30786C280FD006DC4C2817D0682818
:102E40000DD06A2814D104E0742810D07A280FD14C
:102E50000DE044F400140AE044F4801401E044F46A
:102E600040147278824202D104F58014761C761CDC
:102E7000307866280BD013DC582877D009DC00287E
:102E800075D04528F6D04628F4D047281AD193E1CA
:102E900018E0632835D0642879D0652812D18BE1F9
:102EA000702873D008DC6728F1D069286FD06E28AD
:102EB0000DD06F2806D1ACE073282CD0752874D0C3
:102EC000782853D05246179990476D1C54E1C4F3AB
:102ED0000250022809D003280DD0D8F80010042889
:102EE0000DD00D6008F1040846E1D8F80010EA178B
:102EF000C1E90052F6E7D8F800100D80F2E70D7036
:102F0000F0E718F8041B8DF8001000208DF8010080
:102F1000EB46012003E058F804BB4FF0FF30610797
:102F20004FF0000102D40DE009F101018946B942D8
:102F30000FDA8145F8DB1BF809100029F4D108E00D
:102F400009F1010189468142FADB1BF809100029C9
:102F5000F6D103985346A0EB090721463846179A45
:102F600000F080FA284400EB090507E044E008E19E
:102F70000DE01BF8010B524617999047B9F1010972
:102F8000F7D2534621463846179AF2E039E00A2133
:102F9000C4F302524FF0000B0091022A06D058F8F9
:102FA000040BC117032A09D00AE023E008F1070047
:102FB00020F00702F2E80201904605E000B2C117D6
:102FC000042A01D140B2C117002906DA0A460021BD
:102FD000404261EB02012D2202E0220504D52B22A2
:102FE0008DF80420012203E0E20701D02022F7E758
:102FF000914657E00A2100E010214FF0000B0091AC
:103000000BE010214FF0000B44F00404082700915E
:1030100003E008204FF0000B0090C4F30252022A94
:1030200005D058F8040B0021032A08D008E008F165
:10303000070020F00702F2E80201904603E080B2A8
:10304000042A00D1C0B24FF0000922072AD53278F5
:10305000702A07D0DDF800C08CF0100C5CEA0B0C75
:1030600005D00EE040228DF80420012208E050EA4D
:10307000010306D030238DF804308DF8052002229C
:103080009146009B83F0080353EA0B030AD150EAF0
:10309000010201D1620705D530228DF804204FF0DE
:1030A00001097F1E3278582A04D039A20C920CAA4A
:1030B00002920BE03BA2F9E75B46009AFDF76AFA41
:1030C0000C9B9B5C029A521E0292137050EA010202
:1030D000F2D1029804A9081A00F1200B600702D56A
:1030E00024F4803400E001275F4502DDA7EB0B00EC
:1030F00000E0002000EB0B01009003984944401AC7
:103100000390E00306D453462146179A039800F033
:10311000A9F90544002706E001A85246C05D1799A9
:1031200090476D1C7F1C4F45F6DBE0030CD55346E2
:103130002146179A039800F095F9054404E03020E1
:103140005246179990476D1C0099481E009000291F
:10315000F5DC08E00298029952460078491C029179
:10316000179990476D1CBBF10001ABF1010BF1DC2D
:103170005BE100F065F90544761C307800287FF4A7
:103180000DAE19B02846BDE8F08F000009280100F7
:1031900030313233343536373839616263646566CD
:1031A000000000003031323334353637383941428F
:1031B0004344454600000000600700D4062708F19C
:1031C000070020F00700F0E80223804603F0004CDF
:1031D0005FEA0C0001D097A009E0200501D596A078
:1031E00005E0E00701D095A001E0AFF24C0013909C
:1031F000307823F0004365280CD006DC452809D040
:1032000046281DD047287FD13BE0662818D0672884
:103210007AD136E00021112F01DB112000E0781C6B
:10322000CDE9000104A90CA8FFF7EEFCDDE90D01D2
:103230000C9A4FF0000B07F10109109200914EE03B
:103240004FF000400097CDE9011004A90CA8FFF74A
:10325000DBFCDDE90D020C9B0F994FF0000B914652
:103260001093009211B9791C00EB0109B7EB09002A
:1032700003D4C0F1FF3B07F10109A9EB070001905E
:1032800042E0012F00DA01270021112F01DD11207A
:1032900000E03846CDE9000104A90CA8FFF7B4FC12
:1032A000DDE90D010C9A00914FF0000BB946109228
:1032B00021070FD4009A4A4503DA914601E0A9F1AB
:1032C0000109B9F1010F05DD109AA9F10101515C65
:1032D0003029F4D0B84202DA10F1040F03DA0121E8
:1032E000CDE9011010E0002803DC8344A9EB0001C4
:1032F00002E0411C494500DD8946A0EB0B00401C63
:1033000001904FF000400290200705D401984845F5
:1033100002DB4FF0FF30019000208DF84B00029847
:103320000DF14B07B0F1004F25D002200C902B205F
:103330000D90029800280CDA404202902D200D904A
:1033400007E00A210298FDF70FF93031029007F8E3
:10335000011D0C99481E0C900029F2DC02980028EF
:10336000EFD1791E0D980870307800F0200040F001
:10337000450007F8020D11A8C01BC01D029013984C
:10338000007800B1012000EB0901019801EBE07128
:10339000029801440398401A401E0390E00306D4AB
:1033A00053462146179A039800F05CF80544139899
:1033B000007818B15246179990476D1CE00323D549
:1033C00053462146179A039800F04CF805441BE039
:1033D000BBF1000F07DB0098584504DD10981799E2
:1033E00010F80B0001E017993020524690470198E1
:1033F0000BF1010B401E05F10105019004D12E20B7
:103400005246179990476D1CB9F10001A9F10109C5
:10341000DEDC05E017F8010B5246179990476D1C4A
:103420000299481E02900029F4DC53462146179A5F
:1034300003989EE62D0000002B00000020000000F5
:103440002DE9F041044600251E461746880404D4A1
:1034500005E039462020B0476D1C641EF9D528468A
:10346000BDE8F0812DE9F041044600251E46904656
:10347000C80301D5302700E02027880404D505E0E3
:1034800041463846B0476D1C641EF9D52846BDE854
:10349000F08170B5002400212046FFF7EDF80025EB
:1034A0000020FFF75FFB6D1CEDB2802DF8D3641C8C
:1034B000E4B2082CEFD3BDE870404FF4FA7000F08E
:1034C0001BB8000070B505464FF0E02400202061D5
:1034D000FEF74AFA0749E80808804FF47A71484332
:1034E000216941F0020121616061206940F0010021
:1034F000206170BD0600002070B5054600244FF421
:103500007A7603E0304600F005F8641CAC42F9D34B
:1035100070BD000070B54FF0E024002265690949D4
:10352000A36909884843A1699942FCD002D2A3EB60
:10353000010302E0A5EB010633441A440B46824224
:10354000F1D370BD060000202DE9F04100250F46A3
:103550008046802829D2402F27D8154902EB021037
:1035600001EB4004A41C0BB1FF2600E00026F80884
:103570004146FFF781F800BF14F8010B7040FFF7D8
:10358000F1FA6D1CEDB2102DF6D3012000EBD7003F
:103590004146FFF771F8002514F8010B7040FFF762
:1035A000E1FA6D1CEDB2102DF6D3BDE8F0810000FC
:1035B000C04000087CB50446C0B28DF800004FF052
:1035C000FF350A2808D10D208DF804002B46012272
:1035D00001A90548FEF782FD2B46012269460248F3
:1035E000FEF77CFD20467CBD240400201CB5FDF7C1
:1035F000F7FDFFF76FF8FEF713FEFEF7E7FDFEF7A6
:10360000BFFDFEF7A3FFFEF7C5FEFEF729FFFEF79D
:1036100063FF4820FFF756FFFDF782F9FDF7CCF96D
:10362000FDF724FAFEF7B0FFFFF733FF0023412236
:103630000A211846FDF7E2F8002309A214211846D2
:10364000FDF7B5F80020009043F239030522282148
:103650000190FDF707F9FEF7CFFD00F00BF8FEE74C
:1036600048656C6C6F00000001460020842900D082
:10367000C81C704710B500F011FB002010BD7FB5CD
:103680000D4604464169B0F9080081B1A16971B1E4
:10369000FFF7EAFFD4E905128DE80700D4E900102E
:1036A0002B46226900F0FDFB039004B070BDFFF7CC
:1036B000DBFF03A9CDE90001208A2B4682B2D4E9C1
:1036C000001000F0C1FB012801D00020EDE70398B5
:1036D000EBE700002DE9F041054600F067FA2E4CBB
:1036E000A068401CA06020682C4F10B1606940B3F6
:1036F0002DE02560A068012829D1002606EB860070
:1037000007EB800000F038FA761C072EF6D323482A
:103710008C3000F031FA2148A03000F02DFA1F481B
:10372000B43000F029FA1D48C83000F025FA1B48D3
:10373000DC3000F021FA19488C3060631430A0634B
:1037400005E02068E96AC06A884200D82560606A9E
:10375000401C6062E96A01202269884010432061B0
:1037600001EB810007EB8000291D00F013FA00F047
:103770003DFA606900280CD02068E96AC06A884276
:1037800007D207494FF080500860BFF34F8FBFF357
:103790006F8FBDE8F0810000180000204405002074
:1037A00004ED00E010B5044690F8510058B101282E
:1037B0000CD002280FD0502080F31188BFF34F8F18
:1037C000BFF36F8FFEE7206B00F024FA2046BDE8C0
:1037D000104000F01FBA10BD10484FF4406142077E
:1037E00006D0C01D0D4920F00700411AC1F5406107
:1037F0000B4A00230144C2E900030839183A21F0BA
:10380000070111604B600B600B1AC0E90013936055
:103810004FF00040536050617047000034060020B4
:103820006C000020144E154CA6F1C8074FF08058CC
:10383000DFF84C9012E000BF00F0B8F9F068C568FE
:10384000281D00F07BF9A068401EA0606068401E43
:10385000606000F0CBF92846FFF7A4FF60680028FD
:10386000EAD138680128F9D9C9F80080BFF34F8F31
:10387000BFF36F8FF2E700000C0600201800002055
:1038800004ED00E02DE9F0479A46DDE90984814620
:103890006FF00303206B03EB82021044089E20F0BC
:1038A0000707780707D0502080F31188BFF34F8FA8
:1038B000BFF36F8FFEE7002561B1002023180A5C7B
:1038C00083F834200A5C12B1401C1028F6D384F827
:1038D000435001E084F83450072E00D30626E662F8
:1038E000C4E91165201D00F052F904F1180000F040
:1038F0004EF92461C6F107006462A061E56484F8B2
:10390000505052464946384600F0C0F82060B8F1A1
:10391000000F01D0C8F80040BDE8F08730B511496C
:1039200000E011460A688242FBD34B685C1884426F
:1039300003D1406818444860084643681C18944204
:1039400009D1084C183C2468A24209D052681A4494
:1039500042600A6812680260814200D0086030BD8F
:103960000460F9E76C0000200648416B096829B142
:10397000416BC968C9684968816270474FF0FF317F
:10398000FAE700001800002008484068401C4FF08B
:10399000500080F3118804D0BFF34F8FBFF36F8FB7
:1039A000FEE7BFF34F8FBFF36F8FFEE77400002079
:1039B0002DE9F0410546002700F0A6F9324E3068A7
:1039C00008B9FFF709FF706905424ED1C5B3083544
:1039D00068070ED005F00700C0F10800054468072D
:1039E00007D0502080F31188BFF34F8FBFF36F8F44
:1039F000FEE72DB37068854237D82348183001465A
:103A00000C6801E020460C466168A94202D2216898
:103A10000029F7D131688C4227D0076821680160FE
:103A200060680837411B10290FD96019420708D078
:103A3000502080F31188BFF34F8FBFF36F8FFEE7E5
:103A400013E041606560FFF769FF61687068401AC4
:103A50007060B268904200D2B0607069014300208B
:103A6000C4E90001F068401CF06000F0B9FA780782
:103A700007D0502080F31188BFF34F8FBFF36F8FB3
:103A8000FEE73846BDE8F0815400002010B5031F62
:103A90004FF080741C601B1F21F001011960191F79
:103AA000024B0B60143940380A6010BD8939000898
:103AB00070B50D4B024601200A491B880EE000EB51
:103AC0000014157811F81460B54205D101EB4404D7
:103AD00055786478A54204D0401C80B29842EED953
:103AE000002070BDC0400008040000202DE9F04710
:103AF000114F002405464FF020091026A7F10408B5
:103B00000120FFF707FD3E600120FFF703FD2806B7
:103B1000484602D5C8F8000000E038606806050E87
:103B20000120FFF7F7FCC8F80060641CE4B2082C21
:103B3000E6D3BDE8F087000014080140D0E9013267
:103B400001699A60D0E901235A604A68824201D132
:103B500082684A60002202610868401E08600868A6
:103B600070470000034B036003F15400086080209D
:103B7000106070478400002000F108014FF0FF3210
:103B8000C0E90112C160016100210160704700219C
:103B90000161704742684A6093688B60936859601E
:103BA000916008610168491C01607047502080F3F2
:103BB0001188BFF34F8FBFF36F8F0A494868401CCD
:103BC000486001280CD10848006810F0FF0F07D0AA
:103BD000502080F31188BFF34F8FBFF36F8FFEE744
:103BE000704700007400002004ED00E008494868B8
:103BF00028B1401E486001D180F3118870475020E1
:103C000080F31188BFF34F8FBFF36F8FFEE7000083
:103C10007400002070B500282AD0164DA0F10804C9
:103C200060686969084207D1502080F31188BFF3AA
:103C30004F8FBFF36F8FFEE722683AB1502080F3B9
:103C40001188BFF34F8FBFF36F8FFEE7884360602B
:103C500000F05AF860686968084468602046FFF719
:103C60005DFE2869401C2861BDE8704000F0B8B9CD
:103C700070BD0000540000204FF0E02000210161E1
:103C8000816105494FF47A720968B1FBF2F1491E6E
:103C900041610721016170471400002010B586B012
:103CA0000024039405AA04A903A80494FFF75AFF6B
:103CB000DDE903010094CDE9011000230EA11048B5
:103CC000059A00F0EEF80F490028C86211D0502084
:103CD00080F31188BFF34F8FBFF36F8F4FF0FF302A
:103CE000886201204861CC6006B0BDE8104000F059
:103CF00041B806B010BD000049444C45000000002A
:103D000025380008180000200248016B491C016397
:103D100070470000180000201448016B11B1012108
:103D2000C16170470021C1610169B1FA81F1C1F13E
:103D30001F0101EB81020E4951F822306BB101EBFA
:103D4000820101F108034A6852684A609A4201D12F
:103D500052684A60D16801607047502080F3118832
:103D6000BFF34F8FBFF36F8FFEE7000018000020F6
:103D7000440500201CB5264908780190FF200870F2
:103D800008788DF800009DF800009DF8002000F0F4
:103D9000F000904207D0502080F31188BFF34F8F7E
:103DA000BFF36F8FFEE79DF800001A4C00F0500043
:103DB00020700720A06005E09DF8002052008DF8DB
:103DC0000020401E9DF800201206F5D4A0600328B4
:103DD00007D0502080F31188BFF34F8FBFF36F8F50
:103DE000FEE74FF44070A060019808700A4801682F
:103DF00041F470010160016841F070410160FFF71A
:103E00003BFF00206060FCF78FF900201CBD000024
:103E100000E400E07400002020ED00E010B5502028
:103E200080F31188BFF34F8FBFF36F8F00F072F8EC
:103E300018B104494FF080500860002080F31188C9
:103E400010BD000004ED00E02DE9FF5F8346DDE9D1
:103E50000E87994616468A469000FFF7A9FD050091
:103E60001CD05420FFF7A4FD040014D000202563CB
:103E700084F85100CDE90240CDE900874B46324637
:103E800051465846FFF7FEFC2046FFF723FC012071
:103E900004B0BDE8F09F2846FFF7BCFE4FF0FF30AE
:103EA000F6E7F0B585B0DDE90B640A9DA6B1DCB19B
:103EB000542700972663022684F85160002604AF39
:103EC000CDE90246CDE90057FFF7DCFC2046FFF7BD
:103ED00001FC049805B0F0BD502080F31188BFF3B9
:103EE0004F8FBFF36F8FFEE7502080F31188BFF331
:103EF0004F8FBFF36F8FFEE70548416919B1006B23
:103F000018B1002070470120704702207047000060
:103F1000180000202DE9F0412F4C0026206B28B11D
:103F2000A069401CA0613046BDE8F081E5686D1CC9
:103F3000E56013D1606B006838B1502080F31188C0
:103F4000BFF34F8FBFF36F8FFEE7606BA16B6163B1
:103F5000A063206A401C2062FFF706FDA06ADFF81C
:103F60007C80854209D3606B0068A0B1606BC0683B
:103F7000C7687868854211D2A0622068C06A00EBE9
:103F8000800158F82100012800D90126E0690028A5
:103F9000C9D00126C7E74FF0FF30EDE7381DFFF726
:103FA000CDFDB86A18B107F11800FFF7C7FDF96A2F
:103FB0000120226988401043206101EB810108EB58
:103FC0008100391DFFF7E6FDF86A2168C96A884259
:103FD000C9D30126C7E700001800002044050020CF
:103FE0002DE9F0472C4D00242746286B38B1FFF708
:103FF000DDFD286B401E2863286B40B146E0502051
:1040000080F31188BFF34F8FBFF36F8FFEE7A9686E
:10401000224E0120D1B3A6F1B40980463068E8B140
:10402000F068C46804F11800FFF788FD201DFFF751
:1040300085FDE06A2A6908FA00F11143296100EB65
:10404000800109EB8100211DFFF7A4FDE06A2968CA
:10405000C96A8842E2D3C5F81C80DFE70CB1FFF7DC
:1040600083FCAC6944B14646FFF754FF00B1EE61F2
:10407000641EF9D10020A861E86938B10849012718
:1040800038070860BFF34F8FBFF36F8FFFF7AEFDA8
:104090003846BDE8F087000018000020F805002031
:1040A00004ED00E0C84700089D260008000000005D
:1040B0000000000080000000000000000000000080
:1040C000A1E6001824241800C0F0380804040404F1
:1040D0000800000000000000070F183020202020FA
:1040E0001000C9FD00C0300814E40212E20214E41A
:1040F0000830C00000030C102728404748402728FC
:10410000100C0300C8C8080888FF4848000848FF8A
:104110000808F80000008165080720C0080423C0D3
:10412000030023C40F00B5E70000F888888888FFE3
:1041300088888888F800000000001F080808087FA9
:10414000888888889F80F000C5BC8060F80700FEE2
:10415000929292FE929292FE00000000FF00FE02F8
:104160001232121F123A42827E00B6CF00FC202487
:10417000A8FFA82400FC4444C4424000003F222180
:10418000202F20A3601F0000FF000000BFAA808234
:104190008282FE8282828282FE828282800000800F
:1041A00040300F0000000000FF0000000000000091
:1041B00000000000000000000000000000000000FF
:1041C00000FE00000000000000333000000000048A
:1041D000030104030100000000000000000020E0D3
:1041E0003E20E03E2000047F04047F0400001824E9
:1041F00042FF820418000C10207F20110E001C22A8
:10420000229C60180600300C031C22221C00003C7B
:10421000C2423C0000001E2120130C1320000000AD
:104220000B0700000000000000000000000000007C
:10423000F00C0201000000000718204000000001FF
:10424000020CF000000000402018070000001020C1
:1042500040F8402010000402010F01020400808099
:1042600080F0808080000000000700000000000057
:10427000000000000000000058380000000000802E
:10428000808080800000000000000000000000002E
:1042900000000000000000003030000000000000BE
:1042A000008060180600300C03000000000000F8D9
:1042B00004020204F800000F102020100F0000007C
:1042C0000404FE000000000000003F000000001891
:1042D000040202C4380000302826212020000018E3
:1042E000048282443800000C102020110E000000CF
:1042F000806018FE000000060504043F040000FE74
:104300004222224282000008102020100F0000F8F4
:10431000844242841800000F102020100F00000279
:10432000020282720E000000003C03000000003810
:10433000448282443800000E112020110E000078C3
:1043400084020284F800000C102121100F000000EC
:10435000006060000000000000181800000000006D
:10436000006060000000000000583800000000807D
:1043700040201008040000000102040810000000A2
:10438000202020202000000002020202020000047F
:1043900008102040800000100804020100000018EE
:1043A0000402824438000000003330000000F804AA
:1043B000E212F204F8000F102324272413000080D7
:1043C0007806788000003807040404073800FE826D
:1043D0008282824438003F20202020110E00F80401
:1043E0000202020418000F10202020100C00FE0210
:1043F00002020204F8003F20202020100F00FE825D
:104400008282828202003F20202020202000FE8223
:104410008282828202003F00000000000000F80457
:104420000202020418000F10202021113F00FE801C
:1044300080808080FE003F00000000003F00000000
:1044400002FE020000000000203F200000000000EB
:10445000000000FE00000C102020100F0000FE00E5
:104460008060100C02003F01000106083000FE00D1
:104470000000000000003F20202020202000FE78C7
:1044800080008078FE003F00073807003F00FE18DC
:1044900060800000FE003F00000106183F00F804A5
:1044A00002020204F8000F10202020100F00FE82EC
:1044B0008282824438003F00000000000000F804BF
:1044C00002020204F8000F10202428102F00FE82A0
:1044D0008282824438003F000000030C30003844E0
:1044E0004282820418000C10202020110E000202CB
:1044F00002FE020202000000003F00000000FE0079
:1045000000000000FE000F10202020100F000EF011
:10451000000000F00E000000073807000000FE0059
:10452000E01EE000FE00013E0100013E0100061811
:10453000608060180600300C0300030C3000061881
:104540006080601806000000003F000000000202CA
:104550000282621A0600302C23202020200000FF57
:10456000010101010000007F40404040000006982A
:10457000E080E09806000004043F0404000000010D
:10458000010101FF000000404040407F00000004A6
:104590000201020400000000000000000000000012
:1045A000000000000000808080808080808000000B
:1045B0000102040000000000000000000000804034
:1045C00040404080000018242222123F2000FE803C
:1045D0004040408000003F10202020100F0000804D
:1045E0004040404080000F1020202020100000801C
:1045F00040404080FE000F10202020103F0000802F
:104600004040408000000F1222222222130040402E
:10461000FC424200000000003F000000000000805B
:10462000404040804000304D4A4A4A493000FE80B8
:104630004040408000003F00000000003F000000BC
:1046400000CC000000000000003F0000000000005F
:1046500000CC000000000040403F00000000FE00D1
:104660000000804000003F04020508102000000008
:1046700000FE000000000000003F00000000C080BD
:104680004080404080003F00003F00003F00C0806D
:104690004040408000003F00000000003F000080DC
:1046A0004040408000000F10202020100F00C080EC
:1046B0004040408000007F08101010080700008074
:1046C00040404080C0000708101010087F00000024
:1046D000C0804040400000003F00000000008040DB
:1046E00040404040800011222224242418004040F1
:1046F000FC404000000000001F2020000000C0001F
:1047000000000000C0000F10202020103F00C0005B
:1047100000000000C00000030C300C030000C000CB
:1047200000C00000C00007380601063807004080BE
:104730000000008040002010090609102000C00081
:1047400000000000C00040432C100C03000040405B
:10475000404040C04000302824222120200000009A
:10476000807F010100000000007F40400000000049
:1047700000FF00000000000000FF0000000000013A
:10478000017F800000000040407F00000000020127
:104790000102020100000000000000000000010210
:1047A00002030405060708090A0B0C0D0E0F101072
:1047B00000000000000000000102030406070809D1
:1047C000000000000102030464656661756C7454A6
:1047D00061736B00F44700080000002084000000B3
:1047E000E82B00087848000884000020B415000079
:1047F000F82B000800000000070000000100000086
:10480000100000000000000000127A00000000000C
:104810000000000000000000000000000000000098
:104820000000000000000000000000000000000088
:104830000000000000000000000000000000000078
:104840000000000000000000000000000000000068
:104850000000000000000000000000000000000058
:10486000000000000000000000000000AAAAAAAAA0
:08487000000000000000000040
:04000005080000ED02
:00000001FF
